:060000000A128A110C280F
:10000800FE00030EF0000A08F1000A128A15292FD3
:100018000A128A110F280A128A11FE250A128A1159
:10002800BF000A128A11FD250A128A11FB00B601C7
:10003800B701B801B901BA01BB01BC01BD01BE01DC
:10004800F901FA0183010A128A11F62A83120313AD
:10005800AE002A0A031D312832283728B601B70115
:10006800B801FF30AE003230F6008030F7000A12D7
:100078008A156F260A128A11DA30F600C030F700A6
:100088000A128A156F260A128A111230F600D03029
:10009800F7000A128A156F260A128A11C8308312CD
:1000A8000313A80020300A128A1502260A128A11A0
:1000B800C93083120313A80020300A128A150226B9
:1000C8000A128A11CA3083120313A80020300A12B8
:1000D8008A1502260A128A11323083120313AD00E0
:1000E8000130AD022D0A031D7A287B287428C830F8
:1000F800A8006430F2000030F3003708F500360835
:10010800F4000A128A1565270A128A117208303E0D
:100118000A128A1502260A128A11C9308312031399
:10012800A8000A30A0000030A1000A30F200003018
:10013800F3003708F5003608F4000A128A15652717
:100148000A128A11730883120313A3007208A2000B
:100158000A128A15EF260A128A118312031320083D
:10016800303E0A128A1502260A128A11CA308312F0
:100178000313A8000A30A0000030A1003708A3002C
:100188003608A2000A128A15EF260A128A1183126B
:1001980003132008303E0A128A1502260A128A1111
:1001A8002A30831203132E060319DB28DC280729BB
:1001B80023302E060319E128E22807292E0A0319FD
:1001C800E628E7280729033038020318EC28ED2829
:1001D800BD293708F3003608F2000A30F400003071
:1001E800F5000A128A11D8250A128A1183120313FC
:1001F8002E087207B6000030031801307307B700E5
:100208000130B807BD292A302E06031D0C290D29F7
:100218001129B601B701B801BD2923302E06031DE7
:1002280016291729BD2900303702B53003193602BF
:10023800031C1F2920292429B430B6000030B70038
:100248000A128A15CA250A128A118630F6008230E7
:10025800F7000A128A156F260A128A119D30F600D5
:100268009030F7000A128A156F260A128A11E830B0
:10027800F6009D30F7000A128A156F260A128A11B5
:100288003C3083120313BC001215AC299A30A80025
:100298006430F2000030F3003C08AB00AC012B08DE
:1002A800F4002C08F5000A128A1116250A128A1180
:1002B8007208303E0A128A1502260A128A119B30E9
:1002C80083120313A8000A30A4000030A5000A30E6
:1002D800F2000030F3003C08AB00AC012B08F4003E
:1002E8002C08F5000A128A1116250A128A117308B9
:1002F80083120313A7007208A6000A128A15A727FB
:100308000A128A11831203132408303E0A128A152E
:1003180002260A128A119C3083120313A8000A309D
:10032800A4000030A5003C08AB00AC012B08A600D7
:100338002C08A7000A128A15A7270A128A11831205
:1003480003132408303E0A128A1502260A128A115B
:10035800831203133C08031DB229B3294A29121139
:100368000A128A15CA250A128A1111308312031338
:10037800BF00080083120313AE002A0A031DC52913
:10038800C629CC29BA01B901FF30AE00BD01BE01B2
:100398000130F6008030F7000A128A156F260A121B
:1003A8008A11D330F600C030F7000A128A156F267A
:1003B8000A128A111230F600D030F7000A128A1594
:1003C8006F260A128A112A30831203132E06031984
:1003D800EE29EF29252A23302E060319F429F529B9
:1003E800252A2E0A0319F929FA29252A0130B907DD
:1003F800033039020318012A022A102A0A30F200AF
:100408003E080A128A15DB250A128A118312031381
:100418002E07BE00BA01462A053039020318152AEC
:10042800162A462A0A30F2003D080A128A15DB25E8
:100438000A128A11831203132E07BD000130BA0075
:10044800462A2A302E06031D2A2A2B2A372A3A083A
:1004580003192F2A302A342ABD010230B900462A4E
:10046800BE01B901462A23302E06031D3C2A3D2A27
:10047800462A07151215DD30BF000A128A15CA254B
:100488000A128A11831203133A08031D4C2A4D2AB3
:10049800602AC930A80020300A128A1502260A12DA
:1004A8008A11CA3083120313A80020300A128A1551
:1004B80002260A128A11722AC630A80020300A12AF
:1004C8008A1502260A128A11C73083120313A8005C
:1004D80020300A128A1502260A128A113230831233
:1004E8000313AD000130AD022D0A031D7C2A7D2ABD
:1004F800762AC930A8000A30F2000030F3003E081E
:10050800AB00AC012B08F4002C08F5000A128A1184
:1005180016250A128A117208303E0A128A15022616
:100528000A128A11CA3083120313A8000A30A400E1
:100538000030A5003E08AB00AC012B08A6002C0833
:10054800A7000A128A15A7270A128A118312031311
:100558002408303E0A128A1502260A128A11C83067
:1005680083120313A8003A300A128A1502260A12C7
:100578008A11C63083120313A8000A30F200003033
:10058800F3003D08AB00AC012B08F4002C08F50083
:100598000A128A1116250A128A117208303E0A12A6
:1005A8008A1502260A128A11C73083120313A8007B
:1005B8000A30A4000030A5003D08AB00AC012B08B0
:1005C800A6002C08A7000A128A15A7270A128A1162
:1005D800831203132408303E0A128A1502260A12CF
:1005E8008A11080083120313B4010A128A152E26F1
:1005F8000A128A1101300A128A154C260A128A1127
:1006080083120313B50002303F06031D0C2B0D2B7C
:10061800712B3503031D112B122B3D2B0A128A1542
:10062800CA250A128A11113083120313BF00B401BC
:100638006D30F600C030F7000A128A156F260A12CC
:100648008A11333083120313B300BB30B200DF309A
:10065800B100B10B2D2BB20B2D2BB30B2D2B0A1286
:100668008A15CA250A128A11FF3083120313BB00A8
:10067800712B02303506031D422B432B4E2B0A12D9
:100688008A15CA250A128A1183120313B40112307B
:10069800BF00382B03303506031D532B542B5F2B1B
:1006A8000A128A15CA250A128A1183120313B40181
:1006B8001330BF00382B04303506031D642B652B1F
:1006C800712B0A128A15CA250A128A11143083124C
:1006D8000313BF000130B400382BDD303F06031D83
:1006E800762B772BA32B04303506031D7C2B7D2B13
:1006F800912B34080319812B822BFF2B3E081E3EB9
:10070800BE003C303E02031C8A2B8B2BFF2B013092
:10071800BD073E08C43EBE00FF2B05303506031D4D
:10072800962B972B9A2BCC30BF00FF2B0630350623
:10073800031D9F2BA02BFF2BBB30BF00FF2BCC3002
:100748003F06031DA82BA92BFF2B04303506031DDC
:10075800AE2BAF2BFF2B07151215DD30BF00FF2B7B
:100768000A128A117B250A128A1102308312031396
:10077800BF000A128A15CA250A128A111C2C0A12ED
:100788008A1594260A128A111C2C3B08AA003508DF
:100798000A128A11BE210A128A111C2C0A128A1105
:1007A80023240A128A111C2C071112111C2C071160
:1007B80012110A128A15CA250A128A1102308312E6
:1007C8000313BF001C2C3B08AA0035080A128A1123
:1007D800BE210A128A111C2C3B08AA0035080A12ED
:1007E8008A112A200A128A111C2C0A128A15B0258D
:1007F8000A128A111C2C3F08013A0319B42B033A38
:100808000319C32B133A0319C92B033A0319E72B0E
:10081800013A0319F02B073A0319F92BAF3A0319D8
:10082800DB2B773A0319D82B113A0319D22B1C2C3E
:1008380083120313BB01FE2A0A128A110C28C33043
:10084800F6008130F7000A128A156F260A128A11FB
:100858008C3083120313A8000A30F2000030F30032
:100868003E08AA00AB012A08F4002B08F5000A127A
:100878008A1116250A128A117208303E0A128A1540
:1008880002260A128A118D3083120313A8000A3037
:10089800A4000030A5003E08AA00AB012A08A60063
:1008A8002B08A7000A128A15A7270A128A11831291
:1008B80003132408303E0A128A1502260A128A11E6
:1008C8008B3083120313A8003A300A128A150226C5
:1008D8000A128A11893083120313A8000A30F20021
:1008E8000030F3003D08AA00AB012A08F4002B08E9
:1008F800F5000A128A1116250A128A117208303E6A
:100908000A128A1502260A128A118A3083120313E0
:10091800A8000A30A4000030A5003D08AA00AB01D9
:100928002A08A6002B08A7000A128A15A7270A1268
:100938008A11831203132408303E0A128A150226EC
:100948000A128A114130F600C130F7000A128A15DE
:100958006F260A128A11CB30F6009130F7000A127E
:100968008A156F260A128A11E130F600D130F70095
:100978000A128A156F260A128A11831203133D0878
:10098800031DC72CC82C152D3E08031DCC2CCD2CBF
:10099800152D0A128A15CA250A128A118312031301
:1009A800121107119230F600C430F7000A128A15A6
:1009B8006F260A128A112230F6009030F7000A12C8
:1009C8008A156F260A128A111A3083120313AC0093
:1009D8005E30AB006D30AA00AA0BF02CAB0BF02CEC
:1009E800AC0BF02CF72C8312031387141A308312E4
:1009F8000313AC005E30AB006D30AA00AA0B022DC9
:100A0800AB0B022DAC0B022D092D8312031387109B
:100A18000A128A15CA250A128A1102308312031390
:100A2800BF00080083120313A101F31F1C2D1D2D05
:100A3800242DF209F309F20A0319F30A0130A1007F
:100A4800F51F272D282D2F2DF409F509F40A031970
:100A5800F50A0130A106A201A30172087304031963
:100A6800362D372D6C2D0130A000432D0130031099
:100A7800F20DF30DFF3E031D3B2D0130A007F31FC0
:100A8800462D472D3A2D01300310A20DA30DFF3E30
:100A9800031D482D73087502031D542D7208740236
:100AA800031C572D582D5F2D7208F4027308031C80
:100AB800F503F502221401300310F30CF20CFF3E8B
:100AC800031D602D0130A002031D6B2D6C2D472DD9
:100AD80021080319702D712D762DA209A309A20AE8
:100AE8000319A30A2308F3002208F200080083125E
:100AF8000313AD01AE012D08803EA800FF300A1295
:100B08008A1502260A128A11013083120313AD07CF
:100B18000318AE0A0030AE0700302E021030031959
:100B28002D02031C982D992D7F2D7A30F600C230A6
:100B3800F7000A128A156F260A128A115030F60039
:100B48009130F7000A128A156F260A128A11831249
:100B58000313AF01B0012F08D03EA800FF300A12DE
:100B68008A1502260A128A11013083120313AF076D
:100B78000318B00A0030B0070030300210300319F3
:100B88002F02031CC82DC92DAF2D7F3083120313EC
:100B9800AC00D430AB003130AA00AA0BD12DAB0B7E
:100BA800D12DAC0BD12D0800F601F701721CDD2DFB
:100BB800DE2DE42D7408F6070318F70A7508F70701
:100BC80001300310F40DF50DFF3E031DE52D013036
:100BD8000310F30CF20CFF3E031DEC2D7208730496
:100BE800031DF72DF82DDA2D7708F3007608F200AB
:060BF80008000134013485
:100C000006308A000408840A8207003453344534CD
:100C100054342034543449344D3445342034283449
:100C20004D344D343A3453345334293400342A3457
:100C30003A3443344C344534413452342034233430
:100C40003A3445344E345434453452340034453407
:100C50006E346A346F347934203479346F347534B7
:100C6000723420346D34653461346C340034533460
:100C7000453454342034543445344D3450342E34B7
:100C800020343C342A3443343E34003434342E345B
:100C9000533454344134523454342F345234453460
:100CA000533455344D34453400344D346934633451
:100CB00072346F34773461347634653420344F3491
:100CC000763465346E34003433342E342034433477
:100CD0006F346E34763465346E34743469346F3402
:100CE0006E34003450346F347734653472342034C9
:100CF0003D342034393430343034573400345034B7
:100D00006F3477346534723469346E346734203428
:100D10004F344E3400345034723465342D344834FA
:100D200065346134743469346E3467340034543457
:100D300049344D3445342034553450342134213431
:100D400021340034543469346D34653420345234E1
:100D500065346D3420343A34003432342E34203447
:100D60004734723469346C346C34003431342E348A
:100D700020344D346934633472346F340034343485
:100D80002E34203453347434613472347434003467
:100D9000543449344D34453420343D342034003407
:100DA00035342E34503441345534533445340034C2
:100DB000543449344D34453420342D3400345434C3
:100DC00045344D34503420342D34003436342E34F0
:100DD000533454344F3450340034733465346334F2
:100DE0000034831203138811081588140814643022
:100DF000F2000030F300FF30F2070318F30AFF306F
:100E0000F307720A031D082F730A031D082F092F09
:100E1000FB2E8312031306180E2F0F2F112F0130F4
:100E20009C2F8618142F152F172F02309C2F061970
:100E30001A2F1B2F1D2F03309C2F88150811881483
:100E400008146430F2000030F300FF30F20703189A
:100E5000F30AFF30F307720A031D322F730A031DD2
:100E6000322F332F252F831203130618382F392FD3
:100E70003B2F04309C2F86183E2F3F2F412F0530EB
:100E80009C2F0619442F452F472F06309C2F88157D
:100E90000815881008146430F2000030F300FF30A9
:100EA000F2070318F30AFF30F307720A031D5C2FE1
:100EB000730A031D5C2F5D2F4F2F83120313061837
:100EC000622F632F652F07309C2F8618682F692F9C
:100ED0006B2F08309C2F06196E2F6F2F712F093042
:100EE0009C2F88150815881408106430F200003013
:100EF000F300FF30F2070318F30AFF30F307720A1A
:100F0000031D862F730A031D862F872F792F8312C7
:100F1000031306188C2F8D2F8F2F2A309C2F8618A5
:100F2000922F932F952F00309C2F0619982F992FD1
:100F30009B2F23309C2FFF300800C330F700CD30AB
:100F4000F600F60BA12FF70BA12FF20133300A1296
:100F50008A15B9260A128A111B30F7009E30F60056
:100F6000F60BB02FF70BB02F0000F20133300A124E
:100F70008A15B9260A128A11A630F600F60BBE2F82
:100F80000000F20133300A128A15B9260A128A11BA
:100F9000C92FCA2F0000F20102300A128A15B926A1
:100FA0000A128A11A630F600F60BD42F0000F201C7
:100FB00028300A128A15B9260A128A11A630F600BC
:100FC000F60BE02F0000F20101300A128A15B92653
:100FD0000A128A110430F7003D30F600F60BEE2FAE
:100FE000F70BEE2FF32FF2010C300A128A15B926F7
:100FF0000A128A11A630F600F60BFC2F000008003A
:101B60001E3083120313BE00BD0107151215DD30B0
:101B7000BF0008008316031306080738860008080C
:101B8000F03988008113831203138815081588140F
:101B900008140800F20101300A128A15B9260A1247
:101BA0008A150430F7003D30F600F60BD52DF70B03
:101BB000D52DDA2D0800F400F301741CE02DE12D81
:101BC000E32D7208F3070310F20D0310F40C7408F0
:101BD000031DEB2DEC2DDD2D73080800831203137C
:101BE00012139212121292111211921012108316E5
:101BF00003138C14831203138C10FA30831603130F
:101C00009200080083120313A900F20128080A12A7
:101C10008A15B9260A128A15F201F20A83120313F1
:101C200029080A128A15B9260A128A15080083168D
:101C3000031308080F398800091189100A128A1144
:101C40009D270A128A15803083120313A8004130A1
:101C50000A128A1502260A128A1508000A128A1523
:101C600017260A128A150A128A15BA250A128A1527
:101C7000831603130711831203130711831603132B
:101C800087108312031387100A128A15EE250A1291
:101C90008A150B178B170800F4000A128A11F12617
:101CA0000A128A15F5007408031D572E582E5A2E55
:101CB00075086E2E750A03195E2E5F2E662E7B0840
:101CC0000319632E642E662EFB01582E750A031D20
:101CD0006A2E6B2E6D2E0130FB00FF300800F201E2
:101CE00077080A128A15B9260A128A15872EF20178
:101CF000F20A760884000A128A1100260A128A154E
:101D00000A128A15B9260A128A150130F6077608D2
:101D100084000A128A1100260A128A15003A031D4D
:101D2000922E932E772E0800B130F6008030F70007
:101D30000A128A156F260A128A15A830F600C030DA
:101D4000F7000A128A156F260A128A155F30F6000C
:101D50009030F7000A128A156F260A128A15BA30D7
:101D6000F600D030F7000A128A156F260A128A157B
:101D70000800F5007218BD2EC12E83120313091539
:101D8000C42E8312031309117508F03988008914D1
:101D9000A630F300F30BCA2E000083120313891040
:101DA00075080F39F30003300310F30DFF3E031DD8
:101DB000D42E0310730D88008914A630F300F30BA2
:101DC000DF2E00008312031389101B30F4009E30B5
:101DD000F300F30BE92EF40BE92E00000800831248
:101DE0000313200821040319F62EF72E242F0130A7
:101DF000A400032F01300310A00DA10DFF3E031D11
:101E0000FB2E0130A407A11F062F072FFA2E210851
:101E10002302031D0D2F20082202031C102F112F57
:101E2000172F2008A2022108031CA303A3020130DC
:101E30000310A10CA00CFF3E031D182F0130A402BB
:101E4000031D232F242F072F2308A1002208A00001
:101E50000800831203138C1C2E2F2F2F5E2F0130AE
:101E6000F9070318FA0A0030FA07203079064E30D5
:101E700003197A06031D3D2F3E2F5D2FF901FA014C
:101E80003E080319442F452F482F0130BE025D2F15
:101E90003E08031D4C2F4D2F562F3D080319512F7F
:101EA000522F562FBD013C30BE005D2F3C08031958
:101EB0005A2F5B2F5D2F0130BC028C1071088A00F5
:101EC000700E8300FE0E7E0E0900F601F701720807
:101ED000730403196C2F6D2FA22F0130F800792F96
:101EE00001300310F20DF30DFF3E031D712F013081
:101EF000F807F31F7C2F7D2F702F01300310F60D94
:101F0000F70DFF3E031D7E2F73087502031D8A2FF8
:101F100072087402031C8D2F8E2F952F7208F40205
:101F20007308031CF503F502761401300310F30C5B
:101F3000F20CFF3E031D962F0130F802031DA12F66
:101F4000A22F7D2F7708F3007608F2000800F70132
:101F500083120313A71FAD2FAE2FB52FA609A70914
:101F6000A60A0319A70A0130F700A51FB82FB92F39
:101F7000BE2FA409A509A40A0319A50A240825044B
:101F80000319C32FC42FF12F0130F600D02F0130D9
:101F90000310A40DA50DFF3E031DC82F0130F60749
:101FA000A51FD32FD42FC72F25082702031DDA2FF3
:101FB00024082602031CDD2FDE2FE42F2408A602AE
:101FC0002508031CA703A70201300310A50CA40CCD
:101FD000FF3E031DE52F0130F602031DF02FF12F08
:101FE000D42F77080319F52FF62FFB2FA609A70981
:101FF000A60A0319A70A2708A5002608A4000800B6
:02400E00FB3F76
:00000001FF
